:08000000FC05040000000000F3
:08002800D802000000020000F4
:040064004203000053
:04007800AC030000D5
:040090001604000052
:100400004200F8003600F8005400F800801F780021
:10041000200020000C000900B01F78008E93BF0060
:100420000080B200050032001080B20031003200BE
:100430003080B20033003200420037009093BF009A
:100440000080B200070032001080B20008003200C5
:100450003080B2001A0032001080B2001F0032005B
:1004600021003700238EA9009033EC001E003700D6
:1004700081D3BF008040780082D3BF000100A50077
:10048000C433EF004200AF00C433EC00C413E200F9
:1004900002003A00238EA90001003700238EA80035
:1004A000C493BF0084B3B6008233EC00149C800078
:1004B0006820E10001003A009033EC000A003700A8
:1004C0008413E20002003A00238EA90001003700E5
:1004D000238EA8009033EC0003003700238EA80081
:1004E0009033EC000000370054F02F0024088800FF
:1004F00014003700236EA900B4E02F002408880000
:1005000010003700849C80006420E10008003A005D
:100510001F8EA8001F6EA8002028A9000000000060
:10052000000000008033A8000700370003003700F8
:10053000236EA80054F02F00240888008EB3EF002B
:10054000000037008E33EC000028A900A001200035
:100550000C0009004F1078004F0078005400F9009B
:100560003600F9004200F90000400600851F7800BF
:10057000F49B8000E102420005027800830C200019
:10058000110009000302D800F19B8800F49B800051
:100590006420B800C405210084024000843C21008E
:1005A000B41A7800B41A7800CF0278000000060070
:1005B0004200F8003600F8005400F800801F780070
:1005C000200020000C000900B01F7800C633EF00A7
:1005D000020EA900060EAA00349C80000484B2001A
:1005E0000B003A008633EF00C208A800C0C1B30078
:1005F000C4F3B700C413F800C813F900C613F80019
:10060000CA13F900B6020200000000001300370010
:1006100004042000349C8800C208A90000CFB30065
:10062000C4F3B700C413F800C813F900C613F800E8
:10063000CA13F900B602020000000000C0C1B300F6
:10064000C4F3B700C413F800C813F900C613F800C8
:10065000CA13F900B6020200000000000008A90059
:100660000008A900A00120000C0009004F1078002C
:100670004F0078005400F9003600F9004200F900FC
:10068000004006004200F8003600F8005400F80070
:10069000801F7800200020000C000900B01F7800A7
:1006A000C633EF00020EA900060EAA00449C80008B
:1006B0000484B2000B003A008833EF00C228A8007F
:1006C00020C3B300C4F3B700C413F800C813F90083
:1006D000C613F800CA13F900B602020000000000B9
:1006E0001300370004042000449C8800C228A9009D
:1006F00000CFB300C4F3B700C413F800C813F90067
:10070000C613F800CA13F900B60202000000000088
:1007100020C3B300C4F3B700C413F800C813F90032
:10072000C613F800CA13F900B60202000000000068
:1007300001E8A90001E8A900A00120000C000900BF
:100740004F1078004F0078005400F9003600F9008F
:100750004200F900004006004200F8003600F800B0
:100760005400F800801F7800200020000C000900D1
:10077000B01F7800C633EF00020EA900060EAA00D3
:10078000549C80000484B2000B003A008A33EF00CE
:10079000C248A80010C2B300C4F3B700C413F800E5
:1007A000C813F900C613F800CA13F900B602020014
:1007B000000000001300370004042000549C88004F
:1007C000C248A90000CFB300C4F3B700C413F800B7
:1007D000C813F900C613F800CA13F900B6020200E4
:1007E0000000000010C2B300C4F3B700C413F80047
:1007F000C813F900C613F800CA13F900B6020200C4
:10080000000000000288A9000288A900A0012000C1
:100810000C0009004F1078004F0078005400F900D8
:100820003600F9004200F900004006004200F800DE
:100830003600F8005400F800801F780020002000E7
:100840000C000900B01F7800C633EF00020EA900AB
:10085000060EAA00649C80000484B2000B003A00DB
:100860008C33EF00C268A80030C2B300C4F3B700F5
:10087000C413F800C813F900C613F800CA13F9002E
:10088000B60202000000000013003700040420003C
:10089000649C8800C268A90000CFB300C4F3B7000D
:1008A000C413F800C813F900C613F800CA13F900FE
:1008B000B60202000000000030C2B300C4F3B7006B
:1008C000C413F800C813F900C613F800CA13F900DE
:1008D000B6020200000000000348A9000348A90076
:1008E000A00120000C0009004F1078004F00780094
:1008F0005400F9003600F9004200F90000400600FB
:10090000C208A900C228A900C248A900C268A9005B
:100910002008A80021E8A8002288A8002348A800F1
:100920000021EF0008A1EF0004002800040888005F
:10093000C3E8A80000000600276EA800278EA800C4
:10094000284EA800286EA800288EA80028AEA8006F
:1009500000000000200EF8009413F900800402004B
:100960000000000000000600851F7800861F780048
:1009700000000000218EAE000500370000000000DE
:10098000216EAE00020037000040EB00010037008E
:1009900010C0B3004F037800CF02780000000600BB
:1009A000851F7800861F780000000000218EAF00B0
:1009B0000300370000000000216EAE000200370087
:1009C0000040EB000100370010C0B3004F03780077
:1009D000CF02780000000600E70160004300DE005F
:1009E000020040000000A700E88141000000A100D3
:1009F0000104E0001098AD0000000600851F78009B
:100A0000A873EF0000000000216EAE00FDFF37006C
:100A10001F6EA900AA33EF00549D80006A20E100F8
:100A200019003D00236EA900F2010900000000003A
:100A3000549D80006820E1000E003D000000000091
:100A4000218EAE0006003700823A2100AA93BF0033
:100A500011002000EC040200000000000500370037
:100A6000823A2100AA93BF0001002000EC0402009A
:100A700000000000236EA800F20109000000000041
:100A8000AA33EC00E4FF37001F8EA900238EA900D3
:100A9000F800090000000000236EA900F20109001F
:100AA00000000000236EA800F8000900000000000C
:100AB000238EA8001F6EA8001F8EA800A8D3BF0019
:100AC00000E0B700CF02780000000600FE0402003C
:100AD00000000000A2F3B700A0CFB300A4F3B7005A
:100AE000843E2000349D8800C208F800C3E8A900B5
:100AF000A413F800C813F900A613F800CA13F900EC
:100B0000B602020000000000C208F900B4040200AE
:100B1000000000000004E000FCFF3A00A2D3BF0088
:100B200000E0B70000000600851F78007C93BF003E
:100B30007E13E3000D003200E49B8000E1024200DE
:100B400005027800830C2000110009000302D80080
:100B5000E19B8800E49B80006420B800C40521006C
:100B60000400400000A0B700010037000020EF00A3
:100B7000CF027800000006000000E0004220AF0035
:100B8000040037002D000900000000000000E9000B
:100B9000FCFF3A0000000600B40402000000000060
:100BA0000004E000FCFF3A00A813E200030032005A
:100BB000A893BF00BC05020000000000A6D3BF0040
:100BC00081F3B7008033A9008233EF0014002000C6
:100BD000249C880004A1EF001F6EA9001F8EA900AD
:100BE0009033EF008E33EF0014002000D482880091
:100BF0002028A800000006000FF72200F0FF2200C6
:100C000020A0B700000000004044240030428800CB
:100C1000C1E8A8000000200000568800F0FF2F0067
:100C2000105688000600FC00618D2000520520004F
:100C3000A30A20008248780083487800016DA9004B
:100C40000030220004ADB7004052220006ADB700CC
:100C50000600FC00618D200052052000A30A200040
:100C60008248780083487800016DA800002EEF00CC
:100C70001C2EEF00382EEF00542EEF008013A90039
:100C80008033A80018003700800110005A0243008A
:100C9000250080000C1381000000000001004000CE
:100CA000004000004000400040050000000000003F
:100CB0000201E8006110E10004003A009101BA006D
:100CC0003182BA0006C0BF00000006006210E100D9
:100CD00002003A0007C0BF000000060008C0BF00C5
:100CE0000001EB00000006000600200000002000CC
:100CF000A002880040642000800078000001EB0022
:100D000058060200000000000BE0B7005806020081
:100D1000000000000AE0B7000500E0001900320002
:100D200005F0A6000700370058060200000000008A
:100D30000DE0B70058060200000000000CE0B7000C
:100D400005F0A10005E0A6000800370005E0A100BD
:100D50008502E90058060200000000008043780088
:100D600005800900075B7800E5FF370058060200A0
:100D700000000000005B78008502E900FBFF3A00FC
:100D8000DFFF37009C040200000000009C33EF00EE
:100D9000D48280006120E1000F003200B404020020
:100DA000000000000004E00009003200D00402004E
:100DB000000000000004E000020032005A30EF00A2
:100DC0000200370034002000D4828800020037007F
:100DD00024002000D48288005A10E2002F003A003C
:100DE000660502000000000098F3B70098D3BF002A
:100DF0000160EF00F08FB2000D003200A080B20061
:100E0000190032001080B200180032009081B20048
:100E100017003200D08EB200180032002080B200DD
:100E200019003200108FB20018003200180037008D
:100E3000A0CAB3009EF3B70044062000049D8800BA
:100E4000C208F800C3E8A9009E13F800C813F9000F
:100E5000A013F800CA13F900B60202000000000057
:100E6000C208F9000B0037000A00370009003700FC
:100E7000020EA900060EA80006003700020EA90007
:100E8000060EA900030037000200370001003700FA
:100E90000000370024002000D4828800D482800023
:100EA0006220E10018003A009405020000000000F2
:100EB0009AB3B7009A13E200130032008013AF0018
:100EC000090037009A93BF00A4002000301A780070
:100ED000301A7800359D8800469D8800CC050200B8
:100EE00000000000080037009A93BF00A400200013
:100EF000301A7800301A7800359D8800469D8800A9
:100F0000CC05020000000000D48280006120E100D6
:100F100004003A008033AE000200370024002000B5
:0C0F2000D48288009AFF3700FFFF3700E2
:020000040001F9
:105E0000FFFFFF00FFFFFF00FFFFFF00FFFFFF009E
:105E1000FFFFFF00FFFFFF00FFFFFF00FFFFFF008E
:105E2000FFFFFF00FFFFFF00FF7FFF00FFFFFF00FE
:105E3000FAFFFF00FFFFFF00FCFFFF00FFFFFF0076
:105E4000FF7FFF00FFFFFF00FFFFFF00FFFFFF00DE
:105E50005FFFFF00FFFFFF00FFFFFF00FFFFFF00EE
:105E6000FFFFFF00FFFFFF00FFFFFF00FFFFFF003E
:105E7000FFFFFF00FFFFFF00FFFFFF00FFFFFF002E
:105E8000FFFFFF00FFFFFF00FFFFFF00FFFFFF001E
:00000001FF
;DSPIC33CK64MP105
;CRC=6F11  CREATED="22-Jun-19 17:17"
