:08000000F805040000000000F7
:08002800D802000000020000F4
:040064004203000053
:04007800AC030000D5
:040090001604000052
:100400004200F8003600F8005400F800801F780021
:10041000200020000C000900B01F7800DC90BF0015
:100420000080B200050032001080B20031003200BE
:100430003080B2003300320042003700DE90BF004F
:100440000080B200070032001080B20008003200C5
:100450003080B2001A0032001080B2001F0032005B
:1004600021003700238EA900DE30EC001E0037008B
:10047000CFD0BF0080407800D0D0BF000100A500E1
:100480001231EF004200AF001231EC001211E20015
:1004900002003A00238EA90001003700238EA80035
:1004A0001291BF00D2B0B600D030EC00848680003C
:1004B0006820E10001003A00DE30EC000A0037005D
:1004C000D210E20002003A00238EA900010037009A
:1004D000238EA800DE30EC0003003700238EA80036
:1004E000DE30EC0000003700B4E02F002408880064
:1004F00014003700236EA90074C12F00240888005F
:1005000010003700F48680006420E10008003A0003
:100510001F8EA8001F6EA8002028A9000000000060
:1005200000000000CE30A8000700370003003700AD
:10053000236EA800B4E02F0024088800DCB0EF0090
:1005400000003700DC30EC000028A900A0012000EA
:100550000C0009004F1078004F0078005400F9009B
:100560003600F9004200F90000400600851F7800BF
:1005700064868000E1024200050278002303200027
:10058000110009000302D80061868800648680009B
:100590006420B8002400210084024000641121007E
:1005A000B41A7800B41A7800CF0278000000060070
:1005B0004200F8003600F8005400F800801F780070
:1005C000200020000C000900B01F78001431EF005B
:1005D000020EA900060EAA00A48680000484B200C0
:1005E0000B003A00D430EF00C208A800C0C1B3002D
:1005F00012F1B7001211F8001611F9001411F800E9
:100600001811F900B60202000000000013003700C4
:1006100004042000A4868800C208A90000CFB3000B
:1006200012F1B7001211F8001611F9001411F800B8
:100630001811F900B602020000000000C0C1B300AA
:1006400012F1B7001211F8001611F9001411F80098
:100650001811F900B6020200000000000008A9000D
:100660000008A900A00120000C0009004F1078002C
:100670004F0078005400F9003600F9004200F900FC
:10068000004006004200F8003600F8005400F80070
:10069000801F7800200020000C000900B01F7800A7
:1006A0001431EF00020EA900060EAA00B4868000E5
:1006B0000484B2000B003A00D630EF00C228A80034
:1006C00020C3B30012F1B7001211F8001611F9009F
:1006D0001411F8001811F900B60202000000000021
:1006E0001300370004042000B4868800C228A90043
:1006F00000CFB30012F1B7001211F8001611F90083
:100700001411F8001811F900B602020000000000F0
:1007100020C3B30012F1B7001211F8001611F9004E
:100720001411F8001811F900B602020000000000D0
:1007300001E8A90001E8A900A00120000C000900BF
:100740004F1078004F0078005400F9003600F9008F
:100750004200F900004006004200F8003600F800B0
:100760005400F800801F7800200020000C000900D1
:10077000B01F78001431EF00020EA900060EAA0087
:10078000C48680000484B2000B003A00D830EF0029
:10079000C248A80010C2B30012F1B7001211F8004D
:1007A0001611F9001411F8001811F900B602020030
:1007B000000000001300370004042000C4868800F5
:1007C000C248A90000CFB30012F1B7001211F8001F
:1007D0001611F9001411F8001811F900B602020000
:1007E0000000000010C2B30012F1B7001211F800AF
:1007F0001611F9001411F8001811F900B6020200E0
:10080000000000000288A9000288A900A0012000C1
:100810000C0009004F1078004F0078005400F900D8
:100820003600F9004200F900004006004200F800DE
:100830003600F8005400F800801F780020002000E7
:100840000C000900B01F78001431EF00020EA9005F
:10085000060EAA00D48680000484B2000B003A0081
:10086000DA30EF00C268A80030C2B30012F1B7005E
:100870001211F8001611F9001411F8001811F900FE
:10088000B60202000000000013003700040420003C
:10089000D4868800C268A90000CFB30012F1B70067
:1008A0001211F8001611F9001411F8001811F900CE
:1008B000B60202000000000030C2B30012F1B7001F
:1008C0001211F8001611F9001411F8001811F900AE
:1008D000B6020200000000000348A9000348A90076
:1008E000A00120000C0009004F1078004F00780094
:1008F0005400F9003600F9004200F90000400600FB
:10090000C208A900C228A900C248A900C268A9005B
:100910002008A80021E8A8002288A8002348A800F1
:100920000021EF0008A1EF0004002800040888005F
:10093000C3E8A80000000600276EA800278EA800C4
:10094000284EA800286EA800288EA80028AEA8006F
:10095000800402000000000000000600851F7800EF
:10096000861F780000000000218EAE0005003700D1
:1009700000000000216EAE00020037000040EB00D6
:100980000100370010C0B3004F037800CF02780099
:1009900000000600851F7800861F78000000000018
:1009A000218EAF000300370000000000216EAE0072
:1009B000020037000040EB000100370010C0B30018
:1009C0004F037800CF02780000000600E7016000C6
:1009D0004300DE00020040000000A700E881410063
:1009E0000000A1000104E0001098AD000000060026
:1009F000851F7800F670EF0000000000216EAE0049
:100A0000FDFF37001F6EA900F830EF00C48780009B
:100A10006A20E10019003D00236EA900E6030900E9
:100A200000000000C48780006820E1000E003D0047
:100A300000000000218EAE0006003700620F21008A
:100A4000F890BF0011002000E60402000000000042
:100A500005003700620F2100F890BF000100200060
:100A6000E604020000000000236EA800E60309006F
:100A700000000000F830EC00E4FF37001F8EA900F2
:100A8000238EA900F201090000000000236EA900D6
:100A9000E603090000000000236EA800F20109002F
:100AA00000000000238EA8001F6EA8001F8EA80063
:100AB000F6D0BF0000E0B700CF02780000000600CB
:100AC000F804020000000000F0F0B700A0CFB3006F
:100AD000F2F0B700843E2000A4878800C208F80026
:100AE000C3E8A900F210F8001611F900F410F8009C
:100AF0001811F900B602020000000000C208F90057
:100B0000AE040200000000000004E000FCFF3A0018
:100B1000F0D0BF0000E0B70000000600851F78009D
:100B2000CA90BF00CC10E3000D0032005486800054
:100B3000E1024200050278002303200011000900B1
:100B40000302D80051868800548680006420B800D3
:100B5000240021000400400000A0B700010037007D
:100B60000020EF00CF027800000006000000E00047
:100B70004220AF00040037002D00090000000000F3
:100B80000000E900FCFF3A0000000600AE0402008D
:100B9000000000000004E000FCFF3A00B487800081
:100BA0006020E10003003400F690BF00B6050200AB
:100BB00000000000F4D0BF00CFF0B700CE30A90095
:100BC000D030EF00140020009486880004A1EF00CC
:100BD0001F6EA9001F8EA900DE30EF00DC30EF0091
:100BE00014002000048088002028A80000000600CF
:100BF0000FF82200F0FF220020A0B7000000000044
:100C00004044240030428800C1E8A80000002000D1
:100C100000568800F0FF2F00105688000600FC00E8
:100C2000618D200052052000A30A20008248780030
:100C300083487800016DA9000030220004ADB700A0
:100C40004052220006ADB7000600FC00618D200076
:100C500052052000A30A20008248780083487800CB
:100C6000016DA800002EEF001C2EEF00382EEF00C3
:100C7000542EEF00CE10A900CE30A8001800370087
:100C80008001100000024000CD0080000C10CF0059
:100C90000000000001004000004000004000400053
:100CA00040050000000000000201E8006110E100C2
:100CB00004003A009101BA003182BA0006C0BF00B8
:100CC000000006006210E10002003A0007C0BF0009
:100CD0000000060008C0BF000001EB000000060095
:100CE0000600200000002000A00288000064200010
:100CF000800078000001EB005406020000000000B4
:100D00000BE0B70054060200000000000AE0B70044
:100D10000500E0001900320005F0A60007003700CA
:100D200054060200000000000DE0B7005406020067
:100D3000000000000CE0B70005F0A10005E0A600EF
:100D40000800370005E0A1008502E9005406020012
:100D5000000000008043780005800900075B7800F0
:100D6000E5FF37005406020000000000005B780039
:100D70008502E900FBFF3A00DFFF37009C04020018
:100D800000000000EA30EF00048080006120E100F4
:100D90000F003200AE040200000000000004E0007A
:100DA00009003200CA040200000000000004E00054
:100DB000020032000030EF00020037003400200053
:100DC000048088000200370024002000048088008E
:100DD0000010E2002F003A00600502000000000051
:100DE000E6F0B700E6D0BF000160EF00F08FB20080
:100DF0000D003200A080B200190032001080B20055
:100E0000180032009081B20017003200D08EB2007C
:100E1000180032002080B20019003200108FB2009A
:100E20001800320018003700A0CAB300ECF0B70079
:100E30000471220074878800C208F800C3E8A90082
:100E4000EC10F8001611F900EE10F8001811F90076
:100E5000B602020000000000C208F9000B003700D3
:100E60000A00370009003700020EA900060EA8008C
:100E700006003700020EA900060EA9000300370085
:100E80000200370001003700000037002400200076
:100E900004808800048080006220E10018003A008D
:100EA0008E05020000000000E8B0B700E810E20084
:100EB00013003200CE10AF0009003700E890BF00E9
:100EC000A4002000301A7800301A7800A587880026
:100ED000B6878800C6050200000000000800370041
:100EE000E890BF00A4002000301A7800301A780083
:100EF000A5878800B6878800C605020000000000AC
:100F0000048080006120E10004003A00CE30AE0091
:100F10000200370024002000048088009AFF370078
:040F20000040FE008F
:020000040001F9
:105E0000FFFFFF00FFFFFF00FFFFFF00FFFFFF009E
:105E1000FFFFFF00FFFFFF00FFFFFF00FFFFFF008E
:105E2000FFFFFF00FFFFFF00FF7FFF00FFFFFF00FE
:105E3000FAFFFF00FFFFFF00FCFFFF00FFFFFF0076
:105E4000FF7FFF00FFFFFF00FFFFFF00FFFFFF00DE
:105E5000DFFFFF00FFFFFF00FFFFFF00FFFFFF006E
:105E6000FFFFFF00FFFFFF00FFFFFF00FFFFFF003E
:105E7000FFFFFF00FFFFFF00FFFFFF00FFFFFF002E
:105E8000FFFFFF00FFFFFF00FFFFFF00FFFFFF001E
:00000001FF
;DSPIC33CK64MP105
;CRC=F35C  CREATED="09-Jul-19 21:58"
