:08000000D80404000000000018
:10040000276EA800278EA800284EA800286EA800F6
:10041000288EA80028AEA80000000600851F7800DE
:10042000861F780000000000218EAE000500370016
:1004300000000000216EAE00020037000040EB001B
:100440000100370010C0B3004F037800CF027800DE
:1004500000000600851F7800861F7800000000005D
:10046000218EAF000300370000000000216EAE00B7
:10047000020037000040EB000100370010C0B3005D
:100480004F037800CF02780000000600E70160000B
:100490004300DE00020040000000A700E8814100A8
:1004A0000000A1000104E0001098AD00000006006B
:1004B000851F78001470EF0000000000216EAE0070
:1004C000FDFF37001F6EA9001630EF00B4808000DA
:1004D0006A20E10019003D00236EA9003A000900DE
:1004E00000000000B48080006820E1000E003D00A4
:1004F00000000000218EAE000600370042012100FE
:100500001690BF001100200046020200000000000B
:1005100005003700420121001690BF0001002000B5
:100520004602020000000000236EA8003A00090005
:10053000000000001630EC00E4FF37001F8EA90019
:10054000238EA9001E00090000000000236EA900F0
:100550003A00090000000000236EA8001E000900F8
:1005600000000000238EA8001F6EA8001F8EA800A8
:1005700014D0BF0000E0B700CF02780000000600F2
:100580000000E0004220AF00030037000000000040
:100590000000E900FDFF3A0000000600851F78001A
:1005A0000E020200000000000004E000FCFF3A0020
:1005B0001F6EA9001F8EA900048180006F20E1003A
:1005C000040034002090BF00C002020000000000C0
:1005D000020037003A000900000000002430EF005C
:1005E00014002000348188002490BF002430EC00E7
:1005F00080027800050278006220B80084022100A1
:1006000084024000804AEB0000C0B3009042980092
:100610002230EF00148180006820E10014003D00CA
:100620001ED0BF0002E0B70022D0BF000100A5002D
:100630003E30EF004200AF003E30EC003E90BF0085
:1006400026B0B6002490BF002430EC008002780071
:10065000050278006220B800840221008402400074
:10066000F4818000840298002230EC00E9FF37001A
:100670002490BF002430EC0080027800050278004E
:100680006220B8008402210084024000348180008E
:10069000840298002490BF002430EC00800278008F
:1006A000050278006220B800840221008402400024
:1006B00010C0B300804A780000C0B3009042980098
:1006C0002230EF002290BF00248180000020E10052
:1006D00013003400148180006220B80084022100DD
:1006E000040040001000E00002003A00238EA90040
:1006F00001003700238EA8001E0009000000000042
:10070000236EA9003A00090000000000236EA80033
:100710001E000900000000002230EC00E9FF370055
:10072000276EA800278EA8001F8EA8001F6EA800A5
:10073000CF0278000000060058020200000000000E
:100740000EF0B700A0CFB30010F0B700843E200039
:10075000948088001010F8001E10F9001210F800A4
:100760002010F900CE020200000000000E0202007C
:10077000000000000004E000FCFF3A000ED0BF00C3
:1007800000E0B7000000060000000000200EF800A6
:100790000210F9000210F8000610F9000490BF00E2
:1007A00006B0B6000210F8000410F9000690AE0082
:1007B0001E0037001030EF000490AE000900370033
:1007C000C0C1B3000EF0B7000E10F8001E10F90003
:1007D0001010F8002010F900CE0202000000000006
:1007E0001000370000CFB3000EF0B7000E10F80075
:1007F0001E10F9001010F8002010F900CE020200BF
:1008000000000000C0C1B3000EF0B7000E10F800E9
:100810001E10F9001010F8002010F900CE0202009E
:100820000000000002000900000000000650AE00B9
:100830001E0037001430EF000450AE0009003700EE
:1008400020C3B30012F0B7001210F8001E10F90018
:100850001410F8002010F900CE0202000000000081
:100860001000370000CFB30012F0B7001210F800EC
:100870001E10F9001410F8002010F900CE0202003A
:100880000000000020C3B30012F0B7001210F800FF
:100890001E10F9001410F8002010F900CE0202001A
:1008A0000000000002000900000000000670AE0019
:1008B0001E0037001830EF000470AE00090037004A
:1008C00010C2B30016F0B7001610F8001E10F900A1
:1008D0001810F8002010F900CE02020000000000FD
:1008E0001000370000CFB30016F0B7001610F80064
:1008F0001E10F9001810F8002010F900CE020200B6
:100900000000000010C2B30016F0B7001610F80087
:100910001E10F9001810F8002010F900CE02020095
:1009200000000000020009000000000006B0AE0058
:100930001E0037001C30EF0004B0AE000900370085
:1009400030C2B3001AF0B7001A10F8001E10F900F8
:100950001C10F8002010F900CE0202000000000078
:100960001000370000CFB3001AF0B7001A10F800DB
:100970001E10F9001C10F8002010F900CE02020031
:100980000000000030C2B3001AF0B7001A10F800DF
:100990001E10F9001C10F8002010F900CE02020011
:1009A0000000000002000900000000000000060036
:1009B0000FF82200F0FF220020A0B7000000000086
:1009C000C1E8A8000000200000568800F0FF2F00BA
:1009D00010568800882FEF00862FEF008A2FEF0037
:1009E0000E00FC007010200051F82000820720004B
:1009F000A3092000824878008348780085EFB7007B
:100A00004800DE0041F82000620420007305200049
:100A100082487800834878008048780024002000CD
:100A20000480880000000000200EF8000410F90087
:100A3000002EEF001C2EEF0000020200000000005C
:100A4000048080006120E1000F0032000E020200ED
:100A5000000000000004E000090032002A02020049
:100A6000000000000004E000020032000030EF004F
:100A700002003700340020000480880002003700A4
:100A800024002000048088000010E20028003A00C2
:100A90009C0302000000000008F0B70008D0BF006F
:100AA0000160EF00F08FB2000D003200A080B200B4
:100AB000160032001080B200150032009081B200A2
:100AC00014003200D08EB200130032002080B20039
:100AD00012003200108FB2001100320011003700F6
:100AE000A0CAB3000AF0B700047122006480880035
:100AF0000A10F8001E10F9000C10F8002010F90080
:100B0000CE02020000000000070037000600370098
:100B100005003700040037000300370002003700EB
:100B20000100370000003700240020000480880006
:100B3000048080006220E10002003A00C403020049
:0C0B400000000000BEFF37000040FE0077
:10BE0000FFFFFF00FFFFFF00FFFFFF00FFFFFF003E
:10BE1000FFFFFF00FFFFFF00FFFFFF00FFFFFF002E
:10BE2000FFFFFF00FFFFFF00FF7FFF00FFFFFF009E
:10BE3000FFFFFF00FFFFFF00FBFFFF00FFFFFF0012
:10BE4000FF7FFF00FFFFFF00FFFFFF00FFFFFF007E
:10BE5000DFFFFF00FFFFFF00FFFFFF00FFFFFF000E
:10BE6000FFFFFF00FFFFFF00FFFFFF00FFFFFF00DE
:10BE7000FFFFFF00FFFFFF00FFFFFF00FFFFFF00CE
:10BE8000FFFFFF00FFFFFF00FFFFFF00FFFFFF00BE
:00000001FF
;DSPIC33CK32MP102
;CRC=3A8D  CREATED="12-Dec-19 01:11"
